{
  "transactions": [
    {
      "hash": "0x067370965409a463cd186ef7cf0a0b3e434898b28b3a3200eb38ef7df834a504",
      "transactionType": "CALL",
      "contractName": "SynapseModule",
      "contractAddress": "0x48ADb7308f59d98657e779681aE6037902901918",
      "function": "addVerifier(address)",
      "arguments": [
        "0x0E399F695d72033d598aC2911B8A5e9986d6cbaD"
      ],
      "transaction": {
        "type": "0x02",
        "from": "0xe7353bedc72d29f99d6ca5cde69f807cce5d57e4",
        "to": "0x48adb7308f59d98657e779681ae6037902901918",
        "gas": "0x1ab02",
        "value": "0x0",
        "data": "0x9000b3d60000000000000000000000000e399f695d72033d598ac2911b8a5e9986d6cbad",
        "nonce": "0x28",
        "accessList": []
      },
      "additionalContracts": [],
      "isFixedGasLimit": false
    },
    {
      "hash": "0x5f6f90d9f919b58e2be4629a232ae748568e10e57234c5624e513e7fc4710559",
      "transactionType": "CALL",
      "contractName": "SynapseModule",
      "contractAddress": "0x48ADb7308f59d98657e779681aE6037902901918",
      "function": "addVerifier(address)",
      "arguments": [
        "0x107a281D135ff74eC7d43c5A50B902EF762b20dE"
      ],
      "transaction": {
        "type": "0x02",
        "from": "0xe7353bedc72d29f99d6ca5cde69f807cce5d57e4",
        "to": "0x48adb7308f59d98657e779681ae6037902901918",
        "gas": "0x1ab02",
        "value": "0x0",
        "data": "0x9000b3d6000000000000000000000000107a281d135ff74ec7d43c5a50b902ef762b20de",
        "nonce": "0x29",
        "accessList": []
      },
      "additionalContracts": [],
      "isFixedGasLimit": false
    },
    {
      "hash": "0x7c581ca9075991eb4ec445e2dadaf28d0a7a01152c5d58c7226bd380cea97e96",
      "transactionType": "CALL",
      "contractName": "SynapseModule",
      "contractAddress": "0x48ADb7308f59d98657e779681aE6037902901918",
      "function": "addVerifier(address)",
      "arguments": [
        "0x217238cA74d2fBa6cC7466f93D691834A252a3ff"
      ],
      "transaction": {
        "type": "0x02",
        "from": "0xe7353bedc72d29f99d6ca5cde69f807cce5d57e4",
        "to": "0x48adb7308f59d98657e779681ae6037902901918",
        "gas": "0x1ab02",
        "value": "0x0",
        "data": "0x9000b3d6000000000000000000000000217238ca74d2fba6cc7466f93d691834a252a3ff",
        "nonce": "0x2a",
        "accessList": []
      },
      "additionalContracts": [],
      "isFixedGasLimit": false
    },
    {
      "hash": "0x8fa90998b1cee60e7b2d5bae368b8b5ecd3840584a1b90605402638913fe5748",
      "transactionType": "CALL",
      "contractName": "SynapseModule",
      "contractAddress": "0x48ADb7308f59d98657e779681aE6037902901918",
      "function": "addVerifier(address)",
      "arguments": [
        "0x48217D9b7ff1048915b09f21d0D818e6E347De6a"
      ],
      "transaction": {
        "type": "0x02",
        "from": "0xe7353bedc72d29f99d6ca5cde69f807cce5d57e4",
        "to": "0x48adb7308f59d98657e779681ae6037902901918",
        "gas": "0x1ab02",
        "value": "0x0",
        "data": "0x9000b3d600000000000000000000000048217d9b7ff1048915b09f21d0d818e6e347de6a",
        "nonce": "0x2b",
        "accessList": []
      },
      "additionalContracts": [],
      "isFixedGasLimit": false
    },
    {
      "hash": "0x88e81e9f6bafa727cbf0b224647e8f6f0134358293a726aafcde6fafa39fa9c8",
      "transactionType": "CALL",
      "contractName": "SynapseModule",
      "contractAddress": "0x48ADb7308f59d98657e779681aE6037902901918",
      "function": "addVerifier(address)",
      "arguments": [
        "0x65b23E9678F8B3EF331a554865dF045ee49a6365"
      ],
      "transaction": {
        "type": "0x02",
        "from": "0xe7353bedc72d29f99d6ca5cde69f807cce5d57e4",
        "to": "0x48adb7308f59d98657e779681ae6037902901918",
        "gas": "0x1ab02",
        "value": "0x0",
        "data": "0x9000b3d600000000000000000000000065b23e9678f8b3ef331a554865df045ee49a6365",
        "nonce": "0x2c",
        "accessList": []
      },
      "additionalContracts": [],
      "isFixedGasLimit": false
    },
    {
      "hash": "0x901bd61275f26c49c29282145faddc2439a9c914b7b548aa63d721166ca6d6e5",
      "transactionType": "CALL",
      "contractName": "SynapseModule",
      "contractAddress": "0x48ADb7308f59d98657e779681aE6037902901918",
      "function": "addVerifier(address)",
      "arguments": [
        "0x8372EED424f90dCa45325362E474deF7483d55BA"
      ],
      "transaction": {
        "type": "0x02",
        "from": "0xe7353bedc72d29f99d6ca5cde69f807cce5d57e4",
        "to": "0x48adb7308f59d98657e779681ae6037902901918",
        "gas": "0x1ab02",
        "value": "0x0",
        "data": "0x9000b3d60000000000000000000000008372eed424f90dca45325362e474def7483d55ba",
        "nonce": "0x2d",
        "accessList": []
      },
      "additionalContracts": [],
      "isFixedGasLimit": false
    },
    {
      "hash": "0x0d4b88e204164b8db8dabf670732404361735eb42638037bbe8d04f9d7c3d5c7",
      "transactionType": "CALL",
      "contractName": "SynapseModule",
      "contractAddress": "0x48ADb7308f59d98657e779681aE6037902901918",
      "function": "addVerifier(address)",
      "arguments": [
        "0xe144Dd3CE6BF60F70D98BC96400C0FEa5C3193ac"
      ],
      "transaction": {
        "type": "0x02",
        "from": "0xe7353bedc72d29f99d6ca5cde69f807cce5d57e4",
        "to": "0x48adb7308f59d98657e779681ae6037902901918",
        "gas": "0x1ab02",
        "value": "0x0",
        "data": "0x9000b3d6000000000000000000000000e144dd3ce6bf60f70d98bc96400c0fea5c3193ac",
        "nonce": "0x2e",
        "accessList": []
      },
      "additionalContracts": [],
      "isFixedGasLimit": false
    },
    {
      "hash": "0xe28c64b354b9ae3417e911302bf14baea4c0cf1efe2682b05c9f9ccf99a6a6ea",
      "transactionType": "CALL",
      "contractName": "SynapseModule",
      "contractAddress": "0x48ADb7308f59d98657e779681aE6037902901918",
      "function": "addVerifier(address)",
      "arguments": [
        "0xe29c07938d623621fF9824e2a327A6F811386880"
      ],
      "transaction": {
        "type": "0x02",
        "from": "0xe7353bedc72d29f99d6ca5cde69f807cce5d57e4",
        "to": "0x48adb7308f59d98657e779681ae6037902901918",
        "gas": "0x1ab02",
        "value": "0x0",
        "data": "0x9000b3d6000000000000000000000000e29c07938d623621ff9824e2a327a6f811386880",
        "nonce": "0x2f",
        "accessList": []
      },
      "additionalContracts": [],
      "isFixedGasLimit": false
    }
  ],
  "receipts": [
    {
      "transactionHash": "0x067370965409a463cd186ef7cf0a0b3e434898b28b3a3200eb38ef7df834a504",
      "transactionIndex": "0x1",
      "blockHash": "0x53be3beb658410cac41de6b13913a8a0e2a9f0521013e8e79985f5230bcf32c5",
      "blockNumber": "0x8275c1",
      "from": "0xE7353BEdc72D29f99D6cA5CDE69F807cCE5d57e4",
      "to": "0x48ADb7308f59d98657e779681aE6037902901918",
      "cumulativeGasUsed": "0x1cf5c",
      "gasUsed": "0x123f9",
      "contractAddress": null,
      "logs": [
        {
          "address": "0x48ADb7308f59d98657e779681aE6037902901918",
          "topics": [
            "0x6d05492139c5ea989514a5d2150c028041e5c087e2a39967f67dc7d2655adb81"
          ],
          "data": "0x0000000000000000000000000e399f695d72033d598ac2911b8a5e9986d6cbad",
          "blockHash": "0x53be3beb658410cac41de6b13913a8a0e2a9f0521013e8e79985f5230bcf32c5",
          "blockNumber": "0x8275c1",
          "transactionHash": "0x067370965409a463cd186ef7cf0a0b3e434898b28b3a3200eb38ef7df834a504",
          "transactionIndex": "0x1",
          "logIndex": "0x0",
          "removed": false
        }
      ],
      "status": "0x1",
      "logsBloom": "0x00000000000000000000000000000000000000000000000000000000000010000000000000000000000000000000000000000000000000000000000000000000000000000020000000000000000000000000000000000000000000000000000000000000000000000000000000000000000000000000000000000000000000000000000000000000000000000000000000000000000000000000000000000000000000000000000000000000100000000000000000000000000000000000000008000000000000000000000000000000000000000001000000000000000000000000000000000000000000000000000000000000000000000000200000000000",
      "type": "0x2",
      "effectiveGasPrice": "0xb2d05efc"
    },
    {
      "transactionHash": "0x5f6f90d9f919b58e2be4629a232ae748568e10e57234c5624e513e7fc4710559",
      "transactionIndex": "0x2",
      "blockHash": "0x53be3beb658410cac41de6b13913a8a0e2a9f0521013e8e79985f5230bcf32c5",
      "blockNumber": "0x8275c1",
      "from": "0xE7353BEdc72D29f99D6cA5CDE69F807cCE5d57e4",
      "to": "0x48ADb7308f59d98657e779681aE6037902901918",
      "cumulativeGasUsed": "0x2f355",
      "gasUsed": "0x123f9",
      "contractAddress": null,
      "logs": [
        {
          "address": "0x48ADb7308f59d98657e779681aE6037902901918",
          "topics": [
            "0x6d05492139c5ea989514a5d2150c028041e5c087e2a39967f67dc7d2655adb81"
          ],
          "data": "0x000000000000000000000000107a281d135ff74ec7d43c5a50b902ef762b20de",
          "blockHash": "0x53be3beb658410cac41de6b13913a8a0e2a9f0521013e8e79985f5230bcf32c5",
          "blockNumber": "0x8275c1",
          "transactionHash": "0x5f6f90d9f919b58e2be4629a232ae748568e10e57234c5624e513e7fc4710559",
          "transactionIndex": "0x2",
          "logIndex": "0x1",
          "removed": false
        }
      ],
      "status": "0x1",
      "logsBloom": "0x00000000000000000000000000000000000000000000000000000000000010000000000000000000000000000000000000000000000000000000000000000000000000000020000000000000000000000000000000000000000000000000000000000000000000000000000000000000000000000000000000000000000000000000000000000000000000000000000000000000000000000000000000000000000000000000000000000000100000000000000000000000000000000000000008000000000000000000000000000000000000000001000000000000000000000000000000000000000000000000000000000000000000000000200000000000",
      "type": "0x2",
      "effectiveGasPrice": "0xb2d05efc"
    },
    {
      "transactionHash": "0x7c581ca9075991eb4ec445e2dadaf28d0a7a01152c5d58c7226bd380cea97e96",
      "transactionIndex": "0x3",
      "blockHash": "0x53be3beb658410cac41de6b13913a8a0e2a9f0521013e8e79985f5230bcf32c5",
      "blockNumber": "0x8275c1",
      "from": "0xE7353BEdc72D29f99D6cA5CDE69F807cCE5d57e4",
      "to": "0x48ADb7308f59d98657e779681aE6037902901918",
      "cumulativeGasUsed": "0x4174e",
      "gasUsed": "0x123f9",
      "contractAddress": null,
      "logs": [
        {
          "address": "0x48ADb7308f59d98657e779681aE6037902901918",
          "topics": [
            "0x6d05492139c5ea989514a5d2150c028041e5c087e2a39967f67dc7d2655adb81"
          ],
          "data": "0x000000000000000000000000217238ca74d2fba6cc7466f93d691834a252a3ff",
          "blockHash": "0x53be3beb658410cac41de6b13913a8a0e2a9f0521013e8e79985f5230bcf32c5",
          "blockNumber": "0x8275c1",
          "transactionHash": "0x7c581ca9075991eb4ec445e2dadaf28d0a7a01152c5d58c7226bd380cea97e96",
          "transactionIndex": "0x3",
          "logIndex": "0x2",
          "removed": false
        }
      ],
      "status": "0x1",
      "logsBloom": "0x00000000000000000000000000000000000000000000000000000000000010000000000000000000000000000000000000000000000000000000000000000000000000000020000000000000000000000000000000000000000000000000000000000000000000000000000000000000000000000000000000000000000000000000000000000000000000000000000000000000000000000000000000000000000000000000000000000000100000000000000000000000000000000000000008000000000000000000000000000000000000000001000000000000000000000000000000000000000000000000000000000000000000000000200000000000",
      "type": "0x2",
      "effectiveGasPrice": "0xb2d05efc"
    },
    {
      "transactionHash": "0x8fa90998b1cee60e7b2d5bae368b8b5ecd3840584a1b90605402638913fe5748",
      "transactionIndex": "0x4",
      "blockHash": "0x53be3beb658410cac41de6b13913a8a0e2a9f0521013e8e79985f5230bcf32c5",
      "blockNumber": "0x8275c1",
      "from": "0xE7353BEdc72D29f99D6cA5CDE69F807cCE5d57e4",
      "to": "0x48ADb7308f59d98657e779681aE6037902901918",
      "cumulativeGasUsed": "0x53b47",
      "gasUsed": "0x123f9",
      "contractAddress": null,
      "logs": [
        {
          "address": "0x48ADb7308f59d98657e779681aE6037902901918",
          "topics": [
            "0x6d05492139c5ea989514a5d2150c028041e5c087e2a39967f67dc7d2655adb81"
          ],
          "data": "0x00000000000000000000000048217d9b7ff1048915b09f21d0d818e6e347de6a",
          "blockHash": "0x53be3beb658410cac41de6b13913a8a0e2a9f0521013e8e79985f5230bcf32c5",
          "blockNumber": "0x8275c1",
          "transactionHash": "0x8fa90998b1cee60e7b2d5bae368b8b5ecd3840584a1b90605402638913fe5748",
          "transactionIndex": "0x4",
          "logIndex": "0x3",
          "removed": false
        }
      ],
      "status": "0x1",
      "logsBloom": "0x00000000000000000000000000000000000000000000000000000000000010000000000000000000000000000000000000000000000000000000000000000000000000000020000000000000000000000000000000000000000000000000000000000000000000000000000000000000000000000000000000000000000000000000000000000000000000000000000000000000000000000000000000000000000000000000000000000000100000000000000000000000000000000000000008000000000000000000000000000000000000000001000000000000000000000000000000000000000000000000000000000000000000000000200000000000",
      "type": "0x2",
      "effectiveGasPrice": "0xb2d05efc"
    },
    {
      "transactionHash": "0x88e81e9f6bafa727cbf0b224647e8f6f0134358293a726aafcde6fafa39fa9c8",
      "transactionIndex": "0x5",
      "blockHash": "0x53be3beb658410cac41de6b13913a8a0e2a9f0521013e8e79985f5230bcf32c5",
      "blockNumber": "0x8275c1",
      "from": "0xE7353BEdc72D29f99D6cA5CDE69F807cCE5d57e4",
      "to": "0x48ADb7308f59d98657e779681aE6037902901918",
      "cumulativeGasUsed": "0x65f40",
      "gasUsed": "0x123f9",
      "contractAddress": null,
      "logs": [
        {
          "address": "0x48ADb7308f59d98657e779681aE6037902901918",
          "topics": [
            "0x6d05492139c5ea989514a5d2150c028041e5c087e2a39967f67dc7d2655adb81"
          ],
          "data": "0x00000000000000000000000065b23e9678f8b3ef331a554865df045ee49a6365",
          "blockHash": "0x53be3beb658410cac41de6b13913a8a0e2a9f0521013e8e79985f5230bcf32c5",
          "blockNumber": "0x8275c1",
          "transactionHash": "0x88e81e9f6bafa727cbf0b224647e8f6f0134358293a726aafcde6fafa39fa9c8",
          "transactionIndex": "0x5",
          "logIndex": "0x4",
          "removed": false
        }
      ],
      "status": "0x1",
      "logsBloom": "0x00000000000000000000000000000000000000000000000000000000000010000000000000000000000000000000000000000000000000000000000000000000000000000020000000000000000000000000000000000000000000000000000000000000000000000000000000000000000000000000000000000000000000000000000000000000000000000000000000000000000000000000000000000000000000000000000000000000100000000000000000000000000000000000000008000000000000000000000000000000000000000001000000000000000000000000000000000000000000000000000000000000000000000000200000000000",
      "type": "0x2",
      "effectiveGasPrice": "0xb2d05efc"
    },
    {
      "transactionHash": "0x901bd61275f26c49c29282145faddc2439a9c914b7b548aa63d721166ca6d6e5",
      "transactionIndex": "0x6",
      "blockHash": "0x53be3beb658410cac41de6b13913a8a0e2a9f0521013e8e79985f5230bcf32c5",
      "blockNumber": "0x8275c1",
      "from": "0xE7353BEdc72D29f99D6cA5CDE69F807cCE5d57e4",
      "to": "0x48ADb7308f59d98657e779681aE6037902901918",
      "cumulativeGasUsed": "0x78339",
      "gasUsed": "0x123f9",
      "contractAddress": null,
      "logs": [
        {
          "address": "0x48ADb7308f59d98657e779681aE6037902901918",
          "topics": [
            "0x6d05492139c5ea989514a5d2150c028041e5c087e2a39967f67dc7d2655adb81"
          ],
          "data": "0x0000000000000000000000008372eed424f90dca45325362e474def7483d55ba",
          "blockHash": "0x53be3beb658410cac41de6b13913a8a0e2a9f0521013e8e79985f5230bcf32c5",
          "blockNumber": "0x8275c1",
          "transactionHash": "0x901bd61275f26c49c29282145faddc2439a9c914b7b548aa63d721166ca6d6e5",
          "transactionIndex": "0x6",
          "logIndex": "0x5",
          "removed": false
        }
      ],
      "status": "0x1",
      "logsBloom": "0x00000000000000000000000000000000000000000000000000000000000010000000000000000000000000000000000000000000000000000000000000000000000000000020000000000000000000000000000000000000000000000000000000000000000000000000000000000000000000000000000000000000000000000000000000000000000000000000000000000000000000000000000000000000000000000000000000000000100000000000000000000000000000000000000008000000000000000000000000000000000000000001000000000000000000000000000000000000000000000000000000000000000000000000200000000000",
      "type": "0x2",
      "effectiveGasPrice": "0xb2d05efc"
    },
    {
      "transactionHash": "0x0d4b88e204164b8db8dabf670732404361735eb42638037bbe8d04f9d7c3d5c7",
      "transactionIndex": "0x7",
      "blockHash": "0x53be3beb658410cac41de6b13913a8a0e2a9f0521013e8e79985f5230bcf32c5",
      "blockNumber": "0x8275c1",
      "from": "0xE7353BEdc72D29f99D6cA5CDE69F807cCE5d57e4",
      "to": "0x48ADb7308f59d98657e779681aE6037902901918",
      "cumulativeGasUsed": "0x8a732",
      "gasUsed": "0x123f9",
      "contractAddress": null,
      "logs": [
        {
          "address": "0x48ADb7308f59d98657e779681aE6037902901918",
          "topics": [
            "0x6d05492139c5ea989514a5d2150c028041e5c087e2a39967f67dc7d2655adb81"
          ],
          "data": "0x000000000000000000000000e144dd3ce6bf60f70d98bc96400c0fea5c3193ac",
          "blockHash": "0x53be3beb658410cac41de6b13913a8a0e2a9f0521013e8e79985f5230bcf32c5",
          "blockNumber": "0x8275c1",
          "transactionHash": "0x0d4b88e204164b8db8dabf670732404361735eb42638037bbe8d04f9d7c3d5c7",
          "transactionIndex": "0x7",
          "logIndex": "0x6",
          "removed": false
        }
      ],
      "status": "0x1",
      "logsBloom": "0x00000000000000000000000000000000000000000000000000000000000010000000000000000000000000000000000000000000000000000000000000000000000000000020000000000000000000000000000000000000000000000000000000000000000000000000000000000000000000000000000000000000000000000000000000000000000000000000000000000000000000000000000000000000000000000000000000000000100000000000000000000000000000000000000008000000000000000000000000000000000000000001000000000000000000000000000000000000000000000000000000000000000000000000200000000000",
      "type": "0x2",
      "effectiveGasPrice": "0xb2d05efc"
    },
    {
      "transactionHash": "0xe28c64b354b9ae3417e911302bf14baea4c0cf1efe2682b05c9f9ccf99a6a6ea",
      "transactionIndex": "0x8",
      "blockHash": "0x53be3beb658410cac41de6b13913a8a0e2a9f0521013e8e79985f5230bcf32c5",
      "blockNumber": "0x8275c1",
      "from": "0xE7353BEdc72D29f99D6cA5CDE69F807cCE5d57e4",
      "to": "0x48ADb7308f59d98657e779681aE6037902901918",
      "cumulativeGasUsed": "0x9cb2b",
      "gasUsed": "0x123f9",
      "contractAddress": null,
      "logs": [
        {
          "address": "0x48ADb7308f59d98657e779681aE6037902901918",
          "topics": [
            "0x6d05492139c5ea989514a5d2150c028041e5c087e2a39967f67dc7d2655adb81"
          ],
          "data": "0x000000000000000000000000e29c07938d623621ff9824e2a327a6f811386880",
          "blockHash": "0x53be3beb658410cac41de6b13913a8a0e2a9f0521013e8e79985f5230bcf32c5",
          "blockNumber": "0x8275c1",
          "transactionHash": "0xe28c64b354b9ae3417e911302bf14baea4c0cf1efe2682b05c9f9ccf99a6a6ea",
          "transactionIndex": "0x8",
          "logIndex": "0x7",
          "removed": false
        }
      ],
      "status": "0x1",
      "logsBloom": "0x00000000000000000000000000000000000000000000000000000000000010000000000000000000000000000000000000000000000000000000000000000000000000000020000000000000000000000000000000000000000000000000000000000000000000000000000000000000000000000000000000000000000000000000000000000000000000000000000000000000000000000000000000000000000000000000000000000000100000000000000000000000000000000000000008000000000000000000000000000000000000000001000000000000000000000000000000000000000000000000000000000000000000000000200000000000",
      "type": "0x2",
      "effectiveGasPrice": "0xb2d05efc"
    }
  ],
  "libraries": [],
  "pending": [],
  "returns": {},
  "timestamp": 1708902195,
  "chain": 11155420,
  "multi": false,
  "commit": "5a42ebee1"
}