{
  "transactions": [
    {
      "hash": "0x5a8dd41b697825d63f8158ae7ca2128def0ccdff55e7ee9bda616405b5646567",
      "transactionType": "CALL",
      "contractName": "InterchainApp",
      "contractAddress": "0x7ab8913e3f5c87a0651C4278a3b882BBE7091044",
      "function": "setAppConfig(uint64[],address[],address[],address[],uint256,uint64)",
      "arguments": [
        "[11155111]",
        "[0xDb0E36366864B52C30700b8650E719AA1F90157C]",
        "[0x135189D37b0a734e4A339F0e9fd3219521729e7A]",
        "[0x135189D37b0a734e4A339F0e9fd3219521729e7A]",
        "1",
        "1"
      ],
      "transaction": {
        "type": "0x02",
        "from": "0xe7353bedc72d29f99d6ca5cde69f807cce5d57e4",
        "to": "0x7ab8913e3f5c87a0651c4278a3b882bbe7091044",
        "gas": "0x411c3",
        "value": "0x0",
        "data": "0xdd34f56a00000000000000000000000000000000000000000000000000000000000000c00000000000000000000000000000000000000000000000000000000000000100000000000000000000000000000000000000000000000000000000000000014000000000000000000000000000000000000000000000000000000000000001800000000000000000000000000000000000000000000000000000000000000001000000000000000000000000000000000000000000000000000000000000000100000000000000000000000000000000000000000000000000000000000000010000000000000000000000000000000000000000000000000000000000aa36a70000000000000000000000000000000000000000000000000000000000000001000000000000000000000000db0e36366864b52c30700b8650e719aa1f90157c0000000000000000000000000000000000000000000000000000000000000001000000000000000000000000135189d37b0a734e4a339f0e9fd3219521729e7a0000000000000000000000000000000000000000000000000000000000000001000000000000000000000000135189d37b0a734e4a339f0e9fd3219521729e7a",
        "nonce": "0x32",
        "accessList": []
      },
      "additionalContracts": [],
      "isFixedGasLimit": false
    }
  ],
  "receipts": [],
  "libraries": [],
  "pending": [
    "0x5a8dd41b697825d63f8158ae7ca2128def0ccdff55e7ee9bda616405b5646567"
  ],
  "returns": {},
  "timestamp": 1708903342,
  "chain": 11155420,
  "multi": false,
  "commit": "cb15e8a39"
}