{
  "transactions": [
    {
      "hash": "0x293f36024ded59cc7062b17b8c17eba1f951f2218e47faeb3a18c1fd1cfd8757",
      "transactionType": "CALL",
      "contractName": "InterchainApp",
      "contractAddress": "0xDb0E36366864B52C30700b8650E719AA1F90157C",
      "function": "setAppConfig(uint64[],address[],address[],address[],uint256,uint64)",
      "arguments": [
        "[11155111]",
        "[0x8F30DC118Cbc7692CF93f38a03F33e32EAecB3Ed]",
        "[0x48ADb7308f59d98657e779681aE6037902901918]",
        "[0x48ADb7308f59d98657e779681aE6037902901918]",
        "1",
        "1"
      ],
      "transaction": {
        "type": "0x02",
        "from": "0xe7353bedc72d29f99d6ca5cde69f807cce5d57e4",
        "to": "0xdb0e36366864b52c30700b8650e719aa1f90157c",
        "gas": "0x411c3",
        "value": "0x0",
        "data": "0xdd34f56a00000000000000000000000000000000000000000000000000000000000000c00000000000000000000000000000000000000000000000000000000000000100000000000000000000000000000000000000000000000000000000000000014000000000000000000000000000000000000000000000000000000000000001800000000000000000000000000000000000000000000000000000000000000001000000000000000000000000000000000000000000000000000000000000000100000000000000000000000000000000000000000000000000000000000000010000000000000000000000000000000000000000000000000000000000aa36a700000000000000000000000000000000000000000000000000000000000000010000000000000000000000008f30dc118cbc7692cf93f38a03f33e32eaecb3ed000000000000000000000000000000000000000000000000000000000000000100000000000000000000000048adb7308f59d98657e779681ae6037902901918000000000000000000000000000000000000000000000000000000000000000100000000000000000000000048adb7308f59d98657e779681ae6037902901918",
        "nonce": "0x36",
        "accessList": []
      },
      "additionalContracts": [],
      "isFixedGasLimit": false
    }
  ],
  "receipts": [],
  "libraries": [],
  "pending": [
    "0x293f36024ded59cc7062b17b8c17eba1f951f2218e47faeb3a18c1fd1cfd8757"
  ],
  "returns": {},
  "timestamp": 1708903962,
  "chain": 11155420,
  "multi": false,
  "commit": "cb15e8a39"
}