{
  "transactions": [
    {
      "hash": "0xa935f9e01b0a4fe7869036995c0bb1e572f3806fe4d931b23198431fea630c0a",
      "transactionType": "CALL",
      "contractName": "InterchainApp",
      "contractAddress": "0x7ab8913e3f5c87a0651C4278a3b882BBE7091044",
      "function": "setAppConfig(uint64[],address[],address[],address[],uint256,uint64)",
      "arguments": [
        "[11155111]",
        "[0xDb0E36366864B52C30700b8650E719AA1F90157C]",
        "[0x48ADb7308f59d98657e779681aE6037902901918]",
        "[0x48ADb7308f59d98657e779681aE6037902901918]",
        "1",
        "1"
      ],
      "transaction": {
        "type": "0x02",
        "from": "0xe7353bedc72d29f99d6ca5cde69f807cce5d57e4",
        "to": "0x7ab8913e3f5c87a0651c4278a3b882bbe7091044",
        "gas": "0x10680",
        "value": "0x0",
        "data": "0xdd34f56a00000000000000000000000000000000000000000000000000000000000000c00000000000000000000000000000000000000000000000000000000000000100000000000000000000000000000000000000000000000000000000000000014000000000000000000000000000000000000000000000000000000000000001800000000000000000000000000000000000000000000000000000000000000001000000000000000000000000000000000000000000000000000000000000000100000000000000000000000000000000000000000000000000000000000000010000000000000000000000000000000000000000000000000000000000aa36a70000000000000000000000000000000000000000000000000000000000000001000000000000000000000000db0e36366864b52c30700b8650e719aa1f90157c000000000000000000000000000000000000000000000000000000000000000100000000000000000000000048adb7308f59d98657e779681ae6037902901918000000000000000000000000000000000000000000000000000000000000000100000000000000000000000048adb7308f59d98657e779681ae6037902901918",
        "nonce": "0x33",
        "accessList": []
      },
      "additionalContracts": [],
      "isFixedGasLimit": false
    }
  ],
  "receipts": [],
  "libraries": [],
  "pending": [
    "0xa935f9e01b0a4fe7869036995c0bb1e572f3806fe4d931b23198431fea630c0a"
  ],
  "returns": {},
  "timestamp": 1708903551,
  "chain": 11155420,
  "multi": false,
  "commit": "cb15e8a39"
}